{
  "_format": "hh-sol-artifact-1",
  "contractName": "WavePortal",
  "sourceName": "contracts/WavePortal.sol",
  "abi": [
    {
      "inputs": [],
      "stateMutability": "payable",
      "type": "constructor"
    },
    {
      "anonymous": false,
      "inputs": [
        {
          "indexed": true,
          "internalType": "address",
          "name": "from",
          "type": "address"
        },
        {
          "indexed": false,
          "internalType": "uint256",
          "name": "timestamp",
          "type": "uint256"
        },
        {
          "indexed": false,
          "internalType": "string",
          "name": "message",
          "type": "string"
        }
      ],
      "name": "NewWave",
      "type": "event"
    },
    {
      "inputs": [
        {
          "internalType": "address",
          "name": "",
          "type": "address"
        }
      ],
      "name": "earningsPerUser",
      "outputs": [
        {
          "internalType": "uint256",
          "name": "",
          "type": "uint256"
        }
      ],
      "stateMutability": "view",
      "type": "function"
    },
    {
      "inputs": [],
      "name": "getAllWaves",
      "outputs": [
        {
          "components": [
            {
              "internalType": "address",
              "name": "waver",
              "type": "address"
            },
            {
              "internalType": "string",
              "name": "message",
              "type": "string"
            },
            {
              "internalType": "uint256",
              "name": "timestamp",
              "type": "uint256"
            },
            {
              "internalType": "uint256",
              "name": "earnings",
              "type": "uint256"
            }
          ],
          "internalType": "struct WavePortal.Wave[]",
          "name": "",
          "type": "tuple[]"
        }
      ],
      "stateMutability": "view",
      "type": "function"
    },
    {
      "inputs": [],
      "name": "getTotalEarningsByUser",
      "outputs": [
        {
          "internalType": "uint256",
          "name": "",
          "type": "uint256"
        }
      ],
      "stateMutability": "view",
      "type": "function"
    },
    {
      "inputs": [],
      "name": "getTotalWaves",
      "outputs": [
        {
          "internalType": "uint256",
          "name": "",
          "type": "uint256"
        }
      ],
      "stateMutability": "view",
      "type": "function"
    },
    {
      "inputs": [],
      "name": "getTotalWavesByUser",
      "outputs": [
        {
          "internalType": "uint256",
          "name": "",
          "type": "uint256"
        }
      ],
      "stateMutability": "view",
      "type": "function"
    },
    {
      "inputs": [
        {
          "internalType": "address",
          "name": "",
          "type": "address"
        }
      ],
      "name": "lastWavedAt",
      "outputs": [
        {
          "internalType": "uint256",
          "name": "",
          "type": "uint256"
        }
      ],
      "stateMutability": "view",
      "type": "function"
    },
    {
      "inputs": [
        {
          "internalType": "string",
          "name": "message",
          "type": "string"
        }
      ],
      "name": "wave",
      "outputs": [],
      "stateMutability": "nonpayable",
      "type": "function"
    },
    {
      "inputs": [
        {
          "internalType": "address",
          "name": "",
          "type": "address"
        }
      ],
      "name": "wavesPerUser",
      "outputs": [
        {
          "internalType": "uint256",
          "name": "",
          "type": "uint256"
        }
      ],
      "stateMutability": "view",
      "type": "function"
    }
  ],
  "bytecode": "0x6080604052611186806100136000396000f3fe608060405234801561001057600080fd5b50600436106100885760003560e01c80639af230ee1161005b5780639af230ee14610115578063a42a466314610145578063bd43a90814610175578063de1a24d11461019357610088565b8063449d46c01461008d57806352ef5022146100a95780637c6158a4146100c75780639a2cdc08146100f7575b600080fd5b6100a760048036038101906100a29190610a13565b6101b1565b005b6100b1610690565b6040516100be9190610d02565b60405180910390f35b6100e160048036038101906100dc91906109ea565b6106d7565b6040516100ee9190610d02565b60405180910390f35b6100ff6106ef565b60405161010c9190610d02565b60405180910390f35b61012f600480360381019061012a91906109ea565b6106f8565b60405161013c9190610d02565b60405180910390f35b61015f600480360381019061015a91906109ea565b610710565b60405161016c9190610d02565b60405180910390f35b61017d610728565b60405161018a9190610c80565b60405180910390f35b61019b610883565b6040516101a89190610d02565b60405180910390f35b42601e600460003373ffffffffffffffffffffffffffffffffffffffff1673ffffffffffffffffffffffffffffffffffffffff168152602001908152602001600020546101fe9190610e14565b1061023e576040517f08c379a000000000000000000000000000000000000000000000000000000000815260040161023590610ce2565b60405180910390fd5b42600460003373ffffffffffffffffffffffffffffffffffffffff1673ffffffffffffffffffffffffffffffffffffffff1681526020019081526020016000208190555060016000808282546102949190610e14565b925050819055506001600260003373ffffffffffffffffffffffffffffffffffffffff1673ffffffffffffffffffffffffffffffffffffffff16815260200190815260200160002060008282546102eb9190610e14565b925050819055506000606460015442446103059190610e14565b61030f9190610e14565b6103199190610f4b565b905080600181905550603281101561055e576000655af3107a4000905080600360003373ffffffffffffffffffffffffffffffffffffffff1673ffffffffffffffffffffffffffffffffffffffff16815260200190815260200160002060008282546103859190610e14565b92505081905550600560405180608001604052803373ffffffffffffffffffffffffffffffffffffffff16815260200185815260200142815260200183815250908060018154018082558091505060019003906000526020600020906004020160009091909190915060008201518160000160006101000a81548173ffffffffffffffffffffffffffffffffffffffff021916908373ffffffffffffffffffffffffffffffffffffffff16021790555060208201518160010190805190602001906104519291906108ca565b5060408201518160020155606082015181600301555050478111156104ab576040517f08c379a00000000000000000000000000000000000000000000000000000000081526004016104a290610ca2565b60405180910390fd5b60003373ffffffffffffffffffffffffffffffffffffffff16826040516104d190610c6b565b60006040518083038185875af1925050503d806000811461050e576040519150601f19603f3d011682016040523d82523d6000602084013e610513565b606091505b5050905080610557576040517f08c379a000000000000000000000000000000000000000000000000000000000815260040161054e90610cc2565b60405180910390fd5b505061063c565b600560405180608001604052803373ffffffffffffffffffffffffffffffffffffffff1681526020018481526020014281526020016000815250908060018154018082558091505060019003906000526020600020906004020160009091909190915060008201518160000160006101000a81548173ffffffffffffffffffffffffffffffffffffffff021916908373ffffffffffffffffffffffffffffffffffffffff16021790555060208201518160010190805190602001906106249291906108ca565b50604082015181600201556060820151816003015550505b3373ffffffffffffffffffffffffffffffffffffffff167f5f7e16dc676677766a70e9c5628aa6c54ddb8b6e5188e2ae1e1f17f1ffbea7164284604051610684929190610d1d565b60405180910390a25050565b6000600360003373ffffffffffffffffffffffffffffffffffffffff1673ffffffffffffffffffffffffffffffffffffffff16815260200190815260200160002054905090565b60036020528060005260406000206000915090505481565b60008054905090565b60026020528060005260406000206000915090505481565b60046020528060005260406000206000915090505481565b60606005805480602002602001604051908101604052809291908181526020016000905b8282101561087a57838290600052602060002090600402016040518060800160405290816000820160009054906101000a900473ffffffffffffffffffffffffffffffffffffffff1673ffffffffffffffffffffffffffffffffffffffff1673ffffffffffffffffffffffffffffffffffffffff1681526020016001820180546107d590610ee8565b80601f016020809104026020016040519081016040528092919081815260200182805461080190610ee8565b801561084e5780601f106108235761010080835404028352916020019161084e565b820191906000526020600020905b81548152906001019060200180831161083157829003601f168201915b50505050508152602001600282015481526020016003820154815250508152602001906001019061074c565b50505050905090565b6000600260003373ffffffffffffffffffffffffffffffffffffffff1673ffffffffffffffffffffffffffffffffffffffff16815260200190815260200160002054905090565b8280546108d690610ee8565b90600052602060002090601f0160209004810192826108f8576000855561093f565b82601f1061091157805160ff191683800117855561093f565b8280016001018555821561093f579182015b8281111561093e578251825591602001919060010190610923565b5b50905061094c9190610950565b5090565b5b80821115610969576000816000905550600101610951565b5090565b600061098061097b84610d72565b610d4d565b90508281526020810184848401111561099857600080fd5b6109a3848285610ea6565b509392505050565b6000813590506109ba81611139565b92915050565b600082601f8301126109d157600080fd5b81356109e184826020860161096d565b91505092915050565b6000602082840312156109fc57600080fd5b6000610a0a848285016109ab565b91505092915050565b600060208284031215610a2557600080fd5b600082013567ffffffffffffffff811115610a3f57600080fd5b610a4b848285016109c0565b91505092915050565b6000610a608383610bea565b905092915050565b610a7181610e6a565b82525050565b6000610a8282610db3565b610a8c8185610dd6565b935083602082028501610a9e85610da3565b8060005b85811015610ada5784840389528151610abb8582610a54565b9450610ac683610dc9565b925060208a01995050600181019050610aa2565b50829750879550505050505092915050565b6000610af782610dbe565b610b018185610df2565b9350610b11818560208601610eb5565b610b1a81611038565b840191505092915050565b6000610b3082610dbe565b610b3a8185610e03565b9350610b4a818560208601610eb5565b610b5381611038565b840191505092915050565b6000610b6b603483610e03565b9150610b7682611049565b604082019050919050565b6000610b8e602783610e03565b9150610b9982611098565b604082019050919050565b6000610bb1602983610e03565b9150610bbc826110e7565b604082019050919050565b6000610bd4600083610de7565b9150610bdf82611136565b600082019050919050565b6000608083016000830151610c026000860182610a68565b5060208301518482036020860152610c1a8282610aec565b9150506040830151610c2f6040860182610c4d565b506060830151610c426060860182610c4d565b508091505092915050565b610c5681610e9c565b82525050565b610c6581610e9c565b82525050565b6000610c7682610bc7565b9150819050919050565b60006020820190508181036000830152610c9a8184610a77565b905092915050565b60006020820190508181036000830152610cbb81610b5e565b9050919050565b60006020820190508181036000830152610cdb81610b81565b9050919050565b60006020820190508181036000830152610cfb81610ba4565b9050919050565b6000602082019050610d176000830184610c5c565b92915050565b6000604082019050610d326000830185610c5c565b8181036020830152610d448184610b25565b90509392505050565b6000610d57610d68565b9050610d638282610f1a565b919050565b6000604051905090565b600067ffffffffffffffff821115610d8d57610d8c611009565b5b610d9682611038565b9050602081019050919050565b6000819050602082019050919050565b600081519050919050565b600081519050919050565b6000602082019050919050565b600082825260208201905092915050565b600081905092915050565b600082825260208201905092915050565b600082825260208201905092915050565b6000610e1f82610e9c565b9150610e2a83610e9c565b9250827fffffffffffffffffffffffffffffffffffffffffffffffffffffffffffffffff03821115610e5f57610e5e610f7c565b5b828201905092915050565b6000610e7582610e7c565b9050919050565b600073ffffffffffffffffffffffffffffffffffffffff82169050919050565b6000819050919050565b82818337600083830152505050565b60005b83811015610ed3578082015181840152602081019050610eb8565b83811115610ee2576000848401525b50505050565b60006002820490506001821680610f0057607f821691505b60208210811415610f1457610f13610fda565b5b50919050565b610f2382611038565b810181811067ffffffffffffffff82111715610f4257610f41611009565b5b80604052505050565b6000610f5682610e9c565b9150610f6183610e9c565b925082610f7157610f70610fab565b5b828206905092915050565b7f4e487b7100000000000000000000000000000000000000000000000000000000600052601160045260246000fd5b7f4e487b7100000000000000000000000000000000000000000000000000000000600052601260045260246000fd5b7f4e487b7100000000000000000000000000000000000000000000000000000000600052602260045260246000fd5b7f4e487b7100000000000000000000000000000000000000000000000000000000600052604160045260246000fd5b6000601f19601f8301169050919050565b7f547279696e6720746f207769746864726177206d6f7265206d6f6e657920746860008201527f616e2074686520636f6e7472616374206861732e000000000000000000000000602082015250565b7f4661696c656420746f207769746864726177206d6f6e65792066726f6d20636f60008201527f6e74726163742e00000000000000000000000000000000000000000000000000602082015250565b7f4d7573742077616974203330207365636f6e6473206265666f7265207761766960008201527f6e6720616761696e2e0000000000000000000000000000000000000000000000602082015250565b50565b61114281610e6a565b811461114d57600080fd5b5056fea26469706673582212205d6f498847fd7e14b51e7c9706bb131a6582542d17e7b5efc693566f2b1c95bf64736f6c63430008040033",
  "linkReferences": {},
  "deployedLinkReferences": {}
}